{
  "_format": "hh-sol-artifact-1",
  "contractName": "ShrimpFi",
  "sourceName": "contracts/ShrimpFi.sol",
  "abi": [
    {
      "inputs": [],
      "stateMutability": "nonpayable",
      "type": "constructor"
    },
    {
      "inputs": [],
      "name": "ERC721EnumerableForbiddenBatchMint",
      "type": "error"
    },
    {
      "inputs": [
        {
          "internalType": "address",
          "name": "sender",
          "type": "address"
        },
        {
          "internalType": "uint256",
          "name": "tokenId",
          "type": "uint256"
        },
        {
          "internalType": "address",
          "name": "owner",
          "type": "address"
        }
      ],
      "name": "ERC721IncorrectOwner",
      "type": "error"
    },
    {
      "inputs": [
        {
          "internalType": "address",
          "name": "operator",
          "type": "address"
        },
        {
          "internalType": "uint256",
          "name": "tokenId",
          "type": "uint256"
        }
      ],
      "name": "ERC721InsufficientApproval",
      "type": "error"
    },
    {
      "inputs": [
        {
          "internalType": "address",
          "name": "approver",
          "type": "address"
        }
      ],
      "name": "ERC721InvalidApprover",
      "type": "error"
    },
    {
      "inputs": [
        {
          "internalType": "address",
          "name": "operator",
          "type": "address"
        }
      ],
      "name": "ERC721InvalidOperator",
      "type": "error"
    },
    {
      "inputs": [
        {
          "internalType": "address",
          "name": "owner",
          "type": "address"
        }
      ],
      "name": "ERC721InvalidOwner",
      "type": "error"
    },
    {
      "inputs": [
        {
          "internalType": "address",
          "name": "receiver",
          "type": "address"
        }
      ],
      "name": "ERC721InvalidReceiver",
      "type": "error"
    },
    {
      "inputs": [
        {
          "internalType": "address",
          "name": "sender",
          "type": "address"
        }
      ],
      "name": "ERC721InvalidSender",
      "type": "error"
    },
    {
      "inputs": [
        {
          "internalType": "uint256",
          "name": "tokenId",
          "type": "uint256"
        }
      ],
      "name": "ERC721NonexistentToken",
      "type": "error"
    },
    {
      "inputs": [
        {
          "internalType": "address",
          "name": "owner",
          "type": "address"
        },
        {
          "internalType": "uint256",
          "name": "index",
          "type": "uint256"
        }
      ],
      "name": "ERC721OutOfBoundsIndex",
      "type": "error"
    },
    {
      "inputs": [
        {
          "internalType": "address",
          "name": "owner",
          "type": "address"
        }
      ],
      "name": "OwnableInvalidOwner",
      "type": "error"
    },
    {
      "inputs": [
        {
          "internalType": "address",
          "name": "account",
          "type": "address"
        }
      ],
      "name": "OwnableUnauthorizedAccount",
      "type": "error"
    },
    {
      "anonymous": false,
      "inputs": [
        {
          "indexed": true,
          "internalType": "address",
          "name": "owner",
          "type": "address"
        },
        {
          "indexed": true,
          "internalType": "address",
          "name": "approved",
          "type": "address"
        },
        {
          "indexed": true,
          "internalType": "uint256",
          "name": "tokenId",
          "type": "uint256"
        }
      ],
      "name": "Approval",
      "type": "event"
    },
    {
      "anonymous": false,
      "inputs": [
        {
          "indexed": true,
          "internalType": "address",
          "name": "owner",
          "type": "address"
        },
        {
          "indexed": true,
          "internalType": "address",
          "name": "operator",
          "type": "address"
        },
        {
          "indexed": false,
          "internalType": "bool",
          "name": "approved",
          "type": "bool"
        }
      ],
      "name": "ApprovalForAll",
      "type": "event"
    },
    {
      "anonymous": false,
      "inputs": [
        {
          "indexed": true,
          "internalType": "address",
          "name": "previousOwner",
          "type": "address"
        },
        {
          "indexed": true,
          "internalType": "address",
          "name": "newOwner",
          "type": "address"
        }
      ],
      "name": "OwnershipTransferred",
      "type": "event"
    },
    {
      "anonymous": false,
      "inputs": [
        {
          "indexed": true,
          "internalType": "address",
          "name": "owner",
          "type": "address"
        },
        {
          "indexed": true,
          "internalType": "uint256",
          "name": "tokenId",
          "type": "uint256"
        },
        {
          "indexed": false,
          "internalType": "string",
          "name": "name",
          "type": "string"
        }
      ],
      "name": "ShrimpHatched",
      "type": "event"
    },
    {
      "anonymous": false,
      "inputs": [
        {
          "indexed": true,
          "internalType": "uint256",
          "name": "tokenId",
          "type": "uint256"
        },
        {
          "indexed": false,
          "internalType": "uint8",
          "name": "newLevel",
          "type": "uint8"
        }
      ],
      "name": "ShrimpLevelUp",
      "type": "event"
    },
    {
      "anonymous": false,
      "inputs": [
        {
          "indexed": true,
          "internalType": "uint256",
          "name": "tokenId",
          "type": "uint256"
        },
        {
          "indexed": false,
          "internalType": "uint8",
          "name": "totalStrategies",
          "type": "uint8"
        }
      ],
      "name": "StrategyLearned",
      "type": "event"
    },
    {
      "anonymous": false,
      "inputs": [
        {
          "indexed": true,
          "internalType": "address",
          "name": "from",
          "type": "address"
        },
        {
          "indexed": true,
          "internalType": "address",
          "name": "to",
          "type": "address"
        },
        {
          "indexed": true,
          "internalType": "uint256",
          "name": "tokenId",
          "type": "uint256"
        }
      ],
      "name": "Transfer",
      "type": "event"
    },
    {
      "inputs": [],
      "name": "HATCH_PRICE",
      "outputs": [
        {
          "internalType": "uint256",
          "name": "",
          "type": "uint256"
        }
      ],
      "stateMutability": "view",
      "type": "function"
    },
    {
      "inputs": [],
      "name": "MAX_SHRIMPS_PER_WALLET",
      "outputs": [
        {
          "internalType": "uint256",
          "name": "",
          "type": "uint256"
        }
      ],
      "stateMutability": "view",
      "type": "function"
    },
    {
      "inputs": [
        {
          "internalType": "address",
          "name": "to",
          "type": "address"
        },
        {
          "internalType": "uint256",
          "name": "tokenId",
          "type": "uint256"
        }
      ],
      "name": "approve",
      "outputs": [],
      "stateMutability": "nonpayable",
      "type": "function"
    },
    {
      "inputs": [
        {
          "internalType": "address",
          "name": "owner",
          "type": "address"
        }
      ],
      "name": "balanceOf",
      "outputs": [
        {
          "internalType": "uint256",
          "name": "",
          "type": "uint256"
        }
      ],
      "stateMutability": "view",
      "type": "function"
    },
    {
      "inputs": [
        {
          "internalType": "uint256",
          "name": "tokenId",
          "type": "uint256"
        }
      ],
      "name": "getApproved",
      "outputs": [
        {
          "internalType": "address",
          "name": "",
          "type": "address"
        }
      ],
      "stateMutability": "view",
      "type": "function"
    },
    {
      "inputs": [
        {
          "internalType": "uint256",
          "name": "tokenId",
          "type": "uint256"
        }
      ],
      "name": "getShrimpInfo",
      "outputs": [
        {
          "internalType": "string",
          "name": "name",
          "type": "string"
        },
        {
          "internalType": "uint8",
          "name": "level",
          "type": "uint8"
        },
        {
          "internalType": "uint256",
          "name": "exp",
          "type": "uint256"
        },
        {
          "internalType": "uint256",
          "name": "bornAt",
          "type": "uint256"
        },
        {
          "internalType": "uint8",
          "name": "strategies",
          "type": "uint8"
        },
        {
          "internalType": "address",
          "name": "owner",
          "type": "address"
        }
      ],
      "stateMutability": "view",
      "type": "function"
    },
    {
      "inputs": [
        {
          "internalType": "string",
          "name": "_name",
          "type": "string"
        }
      ],
      "name": "hatch",
      "outputs": [],
      "stateMutability": "nonpayable",
      "type": "function"
    },
    {
      "inputs": [
        {
          "internalType": "address",
          "name": "owner",
          "type": "address"
        },
        {
          "internalType": "address",
          "name": "operator",
          "type": "address"
        }
      ],
      "name": "isApprovedForAll",
      "outputs": [
        {
          "internalType": "bool",
          "name": "",
          "type": "bool"
        }
      ],
      "stateMutability": "view",
      "type": "function"
    },
    {
      "inputs": [
        {
          "internalType": "uint256",
          "name": "tokenId",
          "type": "uint256"
        }
      ],
      "name": "learnStrategy",
      "outputs": [],
      "stateMutability": "nonpayable",
      "type": "function"
    },
    {
      "inputs": [],
      "name": "name",
      "outputs": [
        {
          "internalType": "string",
          "name": "",
          "type": "string"
        }
      ],
      "stateMutability": "view",
      "type": "function"
    },
    {
      "inputs": [],
      "name": "owner",
      "outputs": [
        {
          "internalType": "address",
          "name": "",
          "type": "address"
        }
      ],
      "stateMutability": "view",
      "type": "function"
    },
    {
      "inputs": [
        {
          "internalType": "uint256",
          "name": "tokenId",
          "type": "uint256"
        }
      ],
      "name": "ownerOf",
      "outputs": [
        {
          "internalType": "address",
          "name": "",
          "type": "address"
        }
      ],
      "stateMutability": "view",
      "type": "function"
    },
    {
      "inputs": [],
      "name": "renounceOwnership",
      "outputs": [],
      "stateMutability": "nonpayable",
      "type": "function"
    },
    {
      "inputs": [
        {
          "internalType": "address",
          "name": "from",
          "type": "address"
        },
        {
          "internalType": "address",
          "name": "to",
          "type": "address"
        },
        {
          "internalType": "uint256",
          "name": "tokenId",
          "type": "uint256"
        }
      ],
      "name": "safeTransferFrom",
      "outputs": [],
      "stateMutability": "nonpayable",
      "type": "function"
    },
    {
      "inputs": [
        {
          "internalType": "address",
          "name": "from",
          "type": "address"
        },
        {
          "internalType": "address",
          "name": "to",
          "type": "address"
        },
        {
          "internalType": "uint256",
          "name": "tokenId",
          "type": "uint256"
        },
        {
          "internalType": "bytes",
          "name": "data",
          "type": "bytes"
        }
      ],
      "name": "safeTransferFrom",
      "outputs": [],
      "stateMutability": "nonpayable",
      "type": "function"
    },
    {
      "inputs": [
        {
          "internalType": "address",
          "name": "operator",
          "type": "address"
        },
        {
          "internalType": "bool",
          "name": "approved",
          "type": "bool"
        }
      ],
      "name": "setApprovalForAll",
      "outputs": [],
      "stateMutability": "nonpayable",
      "type": "function"
    },
    {
      "inputs": [
        {
          "internalType": "uint256",
          "name": "",
          "type": "uint256"
        }
      ],
      "name": "shrimps",
      "outputs": [
        {
          "internalType": "string",
          "name": "name",
          "type": "string"
        },
        {
          "internalType": "uint8",
          "name": "level",
          "type": "uint8"
        },
        {
          "internalType": "uint256",
          "name": "exp",
          "type": "uint256"
        },
        {
          "internalType": "uint256",
          "name": "bornAt",
          "type": "uint256"
        },
        {
          "internalType": "uint8",
          "name": "strategies",
          "type": "uint8"
        }
      ],
      "stateMutability": "view",
      "type": "function"
    },
    {
      "inputs": [
        {
          "internalType": "bytes4",
          "name": "interfaceId",
          "type": "bytes4"
        }
      ],
      "name": "supportsInterface",
      "outputs": [
        {
          "internalType": "bool",
          "name": "",
          "type": "bool"
        }
      ],
      "stateMutability": "view",
      "type": "function"
    },
    {
      "inputs": [],
      "name": "symbol",
      "outputs": [
        {
          "internalType": "string",
          "name": "",
          "type": "string"
        }
      ],
      "stateMutability": "view",
      "type": "function"
    },
    {
      "inputs": [
        {
          "internalType": "uint256",
          "name": "index",
          "type": "uint256"
        }
      ],
      "name": "tokenByIndex",
      "outputs": [
        {
          "internalType": "uint256",
          "name": "",
          "type": "uint256"
        }
      ],
      "stateMutability": "view",
      "type": "function"
    },
    {
      "inputs": [
        {
          "internalType": "address",
          "name": "owner",
          "type": "address"
        },
        {
          "internalType": "uint256",
          "name": "index",
          "type": "uint256"
        }
      ],
      "name": "tokenOfOwnerByIndex",
      "outputs": [
        {
          "internalType": "uint256",
          "name": "",
          "type": "uint256"
        }
      ],
      "stateMutability": "view",
      "type": "function"
    },
    {
      "inputs": [
        {
          "internalType": "uint256",
          "name": "tokenId",
          "type": "uint256"
        }
      ],
      "name": "tokenURI",
      "outputs": [
        {
          "internalType": "string",
          "name": "",
          "type": "string"
        }
      ],
      "stateMutability": "view",
      "type": "function"
    },
    {
      "inputs": [],
      "name": "totalSupply",
      "outputs": [
        {
          "internalType": "uint256",
          "name": "",
          "type": "uint256"
        }
      ],
      "stateMutability": "view",
      "type": "function"
    },
    {
      "inputs": [
        {
          "internalType": "address",
          "name": "from",
          "type": "address"
        },
        {
          "internalType": "address",
          "name": "to",
          "type": "address"
        },
        {
          "internalType": "uint256",
          "name": "tokenId",
          "type": "uint256"
        }
      ],
      "name": "transferFrom",
      "outputs": [],
      "stateMutability": "nonpayable",
      "type": "function"
    },
    {
      "inputs": [
        {
          "internalType": "address",
          "name": "newOwner",
          "type": "address"
        }
      ],
      "name": "transferOwnership",
      "outputs": [],
      "stateMutability": "nonpayable",
      "type": "function"
    }
  ],
  "bytecode": "0x608060405234801561000f575f5ffd5b503360405180604001604052806008815260200167536872696d70466960c01b815250604051806040016040528060068152602001650534852494d560d41b815250815f908161005f9190610194565b50600161006c8282610194565b5050506001600160a01b03811661009c57604051631e4fbdf760e01b81525f600482015260240160405180910390fd5b6100a5816100ab565b5061024e565b600a80546001600160a01b038381166001600160a01b0319831681179093556040519116919082907f8be0079c531659141344cd1fd0a4f28419497f9722a3daafe3b4186f6b6457e0905f90a35050565b634e487b7160e01b5f52604160045260245ffd5b600181811c9082168061012457607f821691505b60208210810361014257634e487b7160e01b5f52602260045260245ffd5b50919050565b601f82111561018f57805f5260205f20601f840160051c8101602085101561016d5750805b601f840160051c820191505b8181101561018c575f8155600101610179565b50505b505050565b81516001600160401b038111156101ad576101ad6100fc565b6101c1816101bb8454610110565b84610148565b6020601f8211600181146101f3575f83156101dc5750848201515b5f19600385901b1c1916600184901b17845561018c565b5f84815260208120601f198516915b828110156102225787850151825560209485019460019092019101610202565b508482101561023f57868401515f19600387901b60f8161c191681555b50505050600190811b01905550565b611d528061025b5f395ff3fe608060405234801561000f575f5ffd5b506004361061016d575f3560e01c80636352211e116100d9578063b88d4fde11610093578063db6694b61161006e578063db6694b614610316578063e985e9c51461033b578063f2fde38b1461034e578063fbc6c4aa14610361575f5ffd5b8063b88d4fde146102dd578063c87b56dd146102f0578063db15a63d14610303575f5ffd5b80636352211e1461028357806370a0823114610296578063715018a6146102a95780638da5cb5b146102b157806395d89b41146102c2578063a22cb465146102ca575f5ffd5b806323b872dd1161012a57806323b872dd1461020b5780632f745c591461021e57806342842e0e146102315780634f6ccce71461024457806354fc3f50146102575780635901027f1461025f575f5ffd5b806301ffc9a714610171578063034b99041461019957806306fdde03146101ae578063081812fc146101c3578063095ea7b3146101ee57806318160ddd14610203575b5f5ffd5b61018461017f3660046116fd565b610374565b60405190151581526020015b60405180910390f35b6101a05f81565b604051908152602001610190565b6101b661039e565b6040516101909190611746565b6101d66101d1366004611758565b61042d565b6040516001600160a01b039091168152602001610190565b6102016101fc36600461178a565b610454565b005b6008546101a0565b6102016102193660046117b2565b610463565b6101a061022c36600461178a565b6104f1565b61020161023f3660046117b2565b610554565b6101a0610252366004611758565b610573565b6101a0600581565b61027261026d366004611758565b6105c8565b6040516101909594939291906117ec565b6101d6610291366004611758565b610682565b6101a06102a4366004611828565b61068c565b6102016106d1565b600a546001600160a01b03166101d6565b6101b66106e4565b6102016102d8366004611841565b6106f3565b6102016102eb36600461188e565b6106fe565b6101b66102fe366004611758565b610716565b61020161031136600461196b565b610787565b610329610324366004611758565b61094a565b604051610190969594939291906119d9565b610184610349366004611a26565b610ac4565b61020161035c366004611828565b610af1565b61020161036f366004611758565b610b2e565b5f6001600160e01b0319821663780e9d6360e01b1480610398575061039882610cf7565b92915050565b60605f80546103ac90611a57565b80601f01602080910402602001604051908101604052809291908181526020018280546103d890611a57565b80156104235780601f106103fa57610100808354040283529160200191610423565b820191905f5260205f20905b81548152906001019060200180831161040657829003601f168201915b5050505050905090565b5f61043782610d46565b505f828152600460205260409020546001600160a01b0316610398565b61045f828233610d7e565b5050565b6001600160a01b03821661049157604051633250574960e11b81525f60048201526024015b60405180910390fd5b5f61049d838333610d8b565b9050836001600160a01b0316816001600160a01b0316146104eb576040516364283d7b60e01b81526001600160a01b0380861660048301526024820184905282166044820152606401610488565b50505050565b5f6104fb8361068c565b821061052c5760405163295f44f760e21b81526001600160a01b038416600482015260248101839052604401610488565b506001600160a01b03919091165f908152600660209081526040808320938352929052205490565b61056e83838360405180602001604052805f8152506106fe565b505050565b5f61057d60085490565b82106105a55760405163295f44f760e21b81525f600482015260248101839052604401610488565b600882815481106105b8576105b8611a8f565b905f5260205f2001549050919050565b600c6020525f90815260409020805481906105e290611a57565b80601f016020809104026020016040519081016040528092919081815260200182805461060e90611a57565b80156106595780601f1061063057610100808354040283529160200191610659565b820191905f5260205f20905b81548152906001019060200180831161063c57829003601f168201915b505050600184015460028501546003860154600490960154949560ff9283169591945092501685565b5f61039882610d46565b5f6001600160a01b0382166106b6576040516322718ad960e21b81525f6004820152602401610488565b506001600160a01b03165f9081526003602052604090205490565b6106d9610e5e565b6106e25f610e8b565b565b6060600180546103ac90611a57565b61045f338383610edc565b610709848484610463565b6104eb3385858585610f9b565b606061072182610d46565b505f61073760408051602081019091525f815290565b90505f8151116107555760405180602001604052805f815250610780565b8061075f846110c3565b604051602001610770929190611aba565b6040516020818303038152906040525b9392505050565b60056107923361068c565b106107d55760405162461bcd60e51b815260206004820152601360248201527213585e081cda1c9a5b5c1cc81c995858da1959606a1b6044820152606401610488565b80158015906107e5575060208111155b6108275760405162461bcd60e51b8152602060048201526013602482015272092dcecc2d8d2c840dcc2daca40d8cadccee8d606b1b6044820152606401610488565b600b80545f918261083783611ae2565b9190505590506108473382611153565b6040518060a0016040528084848080601f0160208091040260200160405190810160405280939291908181526020018383808284375f9201829052509385525050600160208085019190915260408085018490524260608601526080909401839052858352600c90525020815181906108c09082611b3e565b50602082015160018201805460ff92831660ff19918216179091556040808501516002850155606085015160038501556080909401516004909301805493909216921691909117905551819033907f8229655bf915d73341db9744c48087ccfbb8bba458087a760d9e7d4c8d6c7ab09061093d9087908790611bf9565b60405180910390a3505050565b60605f808080808061095b88610682565b6001600160a01b0316036109a95760405162461bcd60e51b815260206004820152601560248201527414da1c9a5b5c08191bd95cc81b9bdd08195e1a5cdd605a1b6044820152606401610488565b5f878152600c6020526040808220815160a081019092528054829082906109cf90611a57565b80601f01602080910402602001604051908101604052809291908181526020018280546109fb90611a57565b8015610a465780601f10610a1d57610100808354040283529160200191610a46565b820191905f5260205f20905b815481529060010190602001808311610a2957829003601f168201915b5050509183525050600182015460ff908116602080840191909152600284015460408085019190915260038501546060808601919091526004909501549092166080938401528451908501519185015193850151928501519495509390929190610aaf8d610682565b949d939c50919a509850965090945092505050565b6001600160a01b039182165f90815260056020908152604080832093909416825291909152205460ff1690565b610af9610e5e565b6001600160a01b038116610b2257604051631e4fbdf760e01b81525f6004820152602401610488565b610b2b81610e8b565b50565b610b36610e5e565b5f610b4082610682565b6001600160a01b031603610b8e5760405162461bcd60e51b815260206004820152601560248201527414da1c9a5b5c08191bd95cc81b9bdd08195e1a5cdd605a1b6044820152606401610488565b5f818152600c602052604090206004810154602460ff90911610610bed5760405162461bcd60e51b8152602060048201526016602482015275105b1b081cdd1c985d1959da595cc81b19585c9b995960521b6044820152606401610488565b60048101805460ff16905f610c0183611c27565b91906101000a81548160ff021916908360ff160217905550506064816002015f828254610c2e9190611c45565b909155505060048101545f90610c499060069060ff16611c58565b610c54906001611c85565b600183015490915060ff9081169082161115610cb45760018201805460ff191660ff831690811790915560405190815283907f505537e7f9625c8e93d67b41f36e82bcf7b9ea6cec3540deae68a426a6a2b4af9060200160405180910390a25b600482015460405160ff909116815283907f362e2493162a9affe1ac01b39e422dd7fa1439d1a79f0773013debde50162bef9060200160405180910390a2505050565b5f6001600160e01b031982166380ac58cd60e01b1480610d2757506001600160e01b03198216635b5e139f60e01b145b8061039857506301ffc9a760e01b6001600160e01b0319831614610398565b5f818152600260205260408120546001600160a01b03168061039857604051637e27328960e01b815260048101849052602401610488565b61056e838383600161116c565b5f5f610d98858585611270565b90506001600160a01b038116610df457610def84600880545f838152600960205260408120829055600182018355919091527ff3f7a9fe364faab93b216da50a3214154f22a0a2b415b23a84c8169e8b636ee30155565b610e17565b846001600160a01b0316816001600160a01b031614610e1757610e178185611362565b6001600160a01b038516610e3357610e2e846113df565b610e56565b846001600160a01b0316816001600160a01b031614610e5657610e568585611486565b949350505050565b600a546001600160a01b031633146106e25760405163118cdaa760e01b8152336004820152602401610488565b600a80546001600160a01b038381166001600160a01b0319831681179093556040519116919082907f8be0079c531659141344cd1fd0a4f28419497f9722a3daafe3b4186f6b6457e0905f90a35050565b6001600160a01b038316610f055760405163a9fbf51f60e01b81525f6004820152602401610488565b6001600160a01b038216610f3757604051630b61174360e31b81526001600160a01b0383166004820152602401610488565b6001600160a01b038381165f81815260056020908152604080832094871680845294825291829020805460ff191686151590811790915591519182527f17307eab39ab6107e8899845ad3d59bd9653f200f220920489ca2b5937696c31910161093d565b6001600160a01b0383163b156110bc57604051630a85bd0160e11b81526001600160a01b0384169063150b7a0290610fdd908890889087908790600401611c9e565b6020604051808303815f875af1925050508015611017575060408051601f3d908101601f1916820190925261101491810190611cda565b60015b61107e573d808015611044576040519150601f19603f3d011682016040523d82523d5f602084013e611049565b606091505b5080515f0361107657604051633250574960e11b81526001600160a01b0385166004820152602401610488565b805160208201fd5b6001600160e01b03198116630a85bd0160e11b146110ba57604051633250574960e11b81526001600160a01b0385166004820152602401610488565b505b5050505050565b60605f6110cf836114d4565b60010190505f8167ffffffffffffffff8111156110ee576110ee61187a565b6040519080825280601f01601f191660200182016040528015611118576020820181803683370190505b5090508181016020015b5f19016f181899199a1a9b1b9c1cb0b131b232b360811b600a86061a8153600a850494508461112257509392505050565b61045f828260405180602001604052805f8152506115ab565b808061118057506001600160a01b03821615155b15611241575f61118f84610d46565b90506001600160a01b038316158015906111bb5750826001600160a01b0316816001600160a01b031614155b80156111ce57506111cc8184610ac4565b155b156111f75760405163a9fbf51f60e01b81526001600160a01b0384166004820152602401610488565b811561123f5783856001600160a01b0316826001600160a01b03167f8c5be1e5ebec7d5bd14f71427d1e84f3dd0314c0f7b2291e5b200ac8c7c3b92560405160405180910390a45b505b50505f90815260046020526040902080546001600160a01b0319166001600160a01b0392909216919091179055565b5f828152600260205260408120546001600160a01b039081169083161561129c5761129c8184866115c2565b6001600160a01b038116156112d6576112b75f855f5f61116c565b6001600160a01b0381165f90815260036020526040902080545f190190555b6001600160a01b03851615611304576001600160a01b0385165f908152600360205260409020805460010190555b5f8481526002602052604080822080546001600160a01b0319166001600160a01b0389811691821790925591518793918516917fddf252ad1be2c89b69c2b068fc378daa952ba7f163c4a11628f55a4df523b3ef91a4949350505050565b5f61136c8361068c565b5f838152600760209081526040808320546001600160a01b03881684526006909252909120919250908183146113c1575f83815260208281526040808320548584528184208190558352600790915290208290555b5f938452600760209081526040808620869055938552525081205550565b6008545f906113f090600190611cf5565b5f838152600960205260408120546008805493945090928490811061141757611417611a8f565b905f5260205f2001549050806008838154811061143657611436611a8f565b5f91825260208083209091019290925582815260099091526040808220849055858252812055600880548061146d5761146d611d08565b600190038181905f5260205f20015f9055905550505050565b5f60016114928461068c565b61149c9190611cf5565b6001600160a01b039093165f908152600660209081526040808320868452825280832085905593825260079052919091209190915550565b5f8072184f03e93ff9f4daa797ed6e38ed64bf6a1f0160401b83106115125772184f03e93ff9f4daa797ed6e38ed64bf6a1f0160401b830492506040015b6d04ee2d6d415b85acef8100000000831061153e576d04ee2d6d415b85acef8100000000830492506020015b662386f26fc10000831061155c57662386f26fc10000830492506010015b6305f5e1008310611574576305f5e100830492506008015b612710831061158857612710830492506004015b6064831061159a576064830492506002015b600a83106103985760010192915050565b6115b58383611626565b61056e335f858585610f9b565b6115cd838383611687565b61056e576001600160a01b0383166115fb57604051637e27328960e01b815260048101829052602401610488565b60405163177e802f60e01b81526001600160a01b038316600482015260248101829052604401610488565b6001600160a01b03821661164f57604051633250574960e11b81525f6004820152602401610488565b5f61165b83835f610d8b565b90506001600160a01b0381161561056e576040516339e3563760e11b81525f6004820152602401610488565b5f6001600160a01b03831615801590610e565750826001600160a01b0316846001600160a01b031614806116c057506116c08484610ac4565b80610e565750505f908152600460205260409020546001600160a01b03908116911614919050565b6001600160e01b031981168114610b2b575f5ffd5b5f6020828403121561170d575f5ffd5b8135610780816116e8565b5f81518084528060208401602086015e5f602082860101526020601f19601f83011685010191505092915050565b602081525f6107806020830184611718565b5f60208284031215611768575f5ffd5b5035919050565b80356001600160a01b0381168114611785575f5ffd5b919050565b5f5f6040838503121561179b575f5ffd5b6117a48361176f565b946020939093013593505050565b5f5f5f606084860312156117c4575f5ffd5b6117cd8461176f565b92506117db6020850161176f565b929592945050506040919091013590565b60a081525f6117fe60a0830188611718565b905060ff8616602083015284604083015283606083015260ff831660808301529695505050505050565b5f60208284031215611838575f5ffd5b6107808261176f565b5f5f60408385031215611852575f5ffd5b61185b8361176f565b91506020830135801515811461186f575f5ffd5b809150509250929050565b634e487b7160e01b5f52604160045260245ffd5b5f5f5f5f608085870312156118a1575f5ffd5b6118aa8561176f565b93506118b86020860161176f565b925060408501359150606085013567ffffffffffffffff8111156118da575f5ffd5b8501601f810187136118ea575f5ffd5b803567ffffffffffffffff8111156119045761190461187a565b604051601f8201601f19908116603f0116810167ffffffffffffffff811182821017156119335761193361187a565b60405281815282820160200189101561194a575f5ffd5b816020840160208301375f6020838301015280935050505092959194509250565b5f5f6020838503121561197c575f5ffd5b823567ffffffffffffffff811115611992575f5ffd5b8301601f810185136119a2575f5ffd5b803567ffffffffffffffff8111156119b8575f5ffd5b8560208284010111156119c9575f5ffd5b6020919091019590945092505050565b60c081525f6119eb60c0830189611718565b60ff97881660208401526040830196909652506060810193909352931660808201526001600160a01b0390921660a090920191909152919050565b5f5f60408385031215611a37575f5ffd5b611a408361176f565b9150611a4e6020840161176f565b90509250929050565b600181811c90821680611a6b57607f821691505b602082108103611a8957634e487b7160e01b5f52602260045260245ffd5b50919050565b634e487b7160e01b5f52603260045260245ffd5b5f81518060208401855e5f93019283525090919050565b5f610e56611ac88386611aa3565b84611aa3565b634e487b7160e01b5f52601160045260245ffd5b5f60018201611af357611af3611ace565b5060010190565b601f82111561056e57805f5260205f20601f840160051c81016020851015611b1f5750805b601f840160051c820191505b818110156110bc575f8155600101611b2b565b815167ffffffffffffffff811115611b5857611b5861187a565b611b6c81611b668454611a57565b84611afa565b6020601f821160018114611b9e575f8315611b875750848201515b5f19600385901b1c1916600184901b1784556110bc565b5f84815260208120601f198516915b82811015611bcd5787850151825560209485019460019092019101611bad565b5084821015611bea57868401515f19600387901b60f8161c191681555b50505050600190811b01905550565b60208152816020820152818360408301375f818301604090810191909152601f909201601f19160101919050565b5f60ff821660ff8103611c3c57611c3c611ace565b60010192915050565b8082018082111561039857610398611ace565b5f60ff831680611c7657634e487b7160e01b5f52601260045260245ffd5b8060ff84160491505092915050565b60ff818116838216019081111561039857610398611ace565b6001600160a01b03858116825284166020820152604081018390526080606082018190525f90611cd090830184611718565b9695505050505050565b5f60208284031215611cea575f5ffd5b8151610780816116e8565b8181038181111561039857610398611ace565b634e487b7160e01b5f52603160045260245ffdfea26469706673582212203b2d597ddfc652956cab5512ae6dff017949471f4bd8962933dc50a12e3351cc64736f6c634300081c0033",
  "linkReferences": {},
  "deployedLinkReferences": {}
}